:020000040800F2
:100000000050002021020008270200082B020008EF
:1000100043020008470200085F02000800000000D9
:10002000000000000000000000000000770200084F
:100030007B020008000000007F020008910A00080F
:100040009102000891020008910200089102000844
:100050009102000891020008910200089102000834
:100060009102000891020008910200089102000824
:100070009102000891020008910200089102000814
:100080009102000891020008910200089102000804
:1000900091020008910200089102000891020008F4
:1000A00091020008910200089102000891020008E4
:1000B00091020008910200089102000891020008D4
:1000C00091020008910200089102000891020008C4
:1000D000910200082D0B000891020008910200080F
:1000E000910200089102000891020008000000003F
:1000F0000000000000000000000000000000000000
:1001000000000000000000005FF808F100B583B0B7
:1001100000F0DEF8304B314A1360314A1360314B46
:10012000314A32498B4204D21168196004330432D7
:10013000F7E72A4B1A682E4B9A4200D0FEE7284B6D
:100140001A682C4B9A42F9D1234B2B4A13602B4A45
:1001500013602B4B02E000221A600433294A9342B9
:10016000F9D3254B1B6813B9244B1B6803B1FEE779
:1001700000F0BAF8694601A800F0A2F8224C234B1F
:10018000E41AA4100025AC4214DC214C214BE41AE3
:10019000A4100025AC4213DC0099019800F0D8FCB3
:1001A00005461D4C1D4BE41AA410002C0EDC2846FD
:1001B00000F084F8154B53F8253098470135E2E7F5
:1001C000144B53F8253098470135E3E7013C134BB6
:1001D00053F824309847E8E7BABADECA0000002096
:1001E00020000020000000205C0B000824000020FC
:1001F0007856341232547698240000207001002082
:100200002400002074010020BC020008BC02000889
:10021000BC020008BC020008BC020008BC020008C6
:1002200008B5FFF773FF00BEFEE71EF0040F0CBF1A
:10023000EFF30880EFF309807146124A104700BEC1
:10024000FEE700BEFEE71EF0040F0CBFEFF30880D0
:10025000EFF3098071460C4A104700BEFEE71EF01E
:10026000040F0CBFEFF30880EFF309807146074AD3
:10027000104700BEFEE700BEFEE700BEFEE700BE80
:10028000FEE770473F0200085B02000873020008A7
:0402900000BEFEE7C7
:100294005C0B000800000020240000205C0B000818
:1002A4000000000000000000240000207401002071
:0802B400000000000000000042
:1002BC00FEE7000001230360014B0B60704700BF99
:1002CC000400002008B500F073F8024A024B9A6053
:1002DC0008BD00BF0000000800ED00E008B500F00C
:1002EC008FF808BD82B00023019300932C4A136849
:1002FC0043F4803313602A4B1B6803F400330093E0
:10030C00019B01330193009B1BB9019BB3F5A06FBB
:10031C00F1D1234B1B6813F4003F06D0012300934B
:10032C00009B012B04D002B0704700230093F7E729
:10033C001C4B1A6842F010021A601A6822F0030271
:10034C001A601A6842F002021A60A3F580535A68C8
:10035C005A605A685A605A6842F480625A605A6805
:10036C0022F47C125A605A6842F4E8125A601A68F5
:10037C0042F080721A600A4B1B6813F0007FFAD0AF
:10038C00074B5A6822F003025A605A6842F0020284
:10039C005A60034B5B6803F00C03082BF9D1C2E7DE
:1003AC00001002400020024008B5FFF79BFF08BD7B
:1003BC0008B5104B1A6842F001021A6059680E4ACF
:1003CC000A405A601A6822F0847222F480321A6051
:1003DC001A6822F480221A605A6822F4FE025A60CB
:1003EC004FF41F029A60FFF7DFFF044B4FF00062DF
:1003FC009A6008BD001002400000FFF800ED00E01C
:10040C001F4B5B6803F00C03042B15D0082B17D083
:10041C001BB11C4B1C4A1A6002E01A4B1A4A1A6098
:10042C00174B5B68C3F30313184AD35CDAB2154954
:10043C000B68D3400B607047124B134A1A60EFE7FE
:10044C000F4A53685268C3F38343023312F4803F5C
:10045C000AD00B4A526812F4003F0BD00C4A02FB34
:10046C0003F3084A1360DBE7094A02FB03F3054A6E
:10047C001360D5E7044A02FB03F3024A1360CFE78B
:10048C00001002401C00002000127A000C0000201A
:10049C0000093D0008B50421002000F09BFA08BDBE
:1004AC00154BDB6813F0010FFAD1134B1B6913F0DA
:1004BC00800F05D0104B114A5A6002F188325A60F5
:1004CC000D4B1A6942F002021A61800200F10060C1
:1004DC0058611A6942F040021A61074BDB6813F04D
:1004EC00010FFAD1044BDA6842F02002DA601A6983
:1004FC0022F002021A617047002002402301674576
:10050C0038B504460D4604E02046FFF7C9FF013418
:10051C00E4B2AC42F8D338BD30B482B01A4BDB68CD
:10052C0013F0010FFAD1184B1B6913F0800F05D093
:10053C00154B164C5C6004F188345C6000241DE0A3
:10054C00114D2B6943F001032B6131F81430ADF8D8
:10055C000630BDF806309BB220F8023B0A4BDB6834
:10056C0013F0010FFAD1084BDD6845F02005DD6072
:10057C001D6925F001051D610134E4B29442DFD3FD
:10058C0002B030BC704700BF002002402301674519
:10059C0010B4012827D018B1022847D010BC7047DE
:1005AC00072912D90F29F9D8A1F10804E4B2314B6B
:1005BC001968A4000F20A04021EA000119601868F6
:1005CC0002FA04F101431960E8E72B4B1868890023
:1005DC000F248C4020EA04001860186802FA01F11C
:1005EC0001431960DAE7072912D90F29D6D8A1F1EE
:1005FC000800C0B2214B196880000F24844021EA06
:10060C00040119601C6802FA00F121431960C5E766
:10061C001B4B186889000F248C4020EA04001860DA
:10062C00186802FA01F101431960B7E7072912D9DA
:10063C000F29B3D8A1F10803DBB2124801689B0063
:10064C000F249C4021EA04010160046802FA03F1C2
:10065C0021430160A2E70C4B186889000F248C40E1
:10066C0020EA04001860186802FA01F101431960CD
:10067C0094E700BF0408014000080140040C01404D
:10068C00000C0140041001400010014008B5012885
:10069C0008D010B102280AD008BD0221084600F08B
:1006AC0099F9F9E70321022000F094F9F4E7042109
:1006BC00022000F08FF9EFE71F2809D93F2806D850
:1006CC002038C0B2012303FA00F0044B18607047C5
:1006DC00012303FA00F0024B1860704704E100E0BC
:1006EC0000E100E008B5044B044A1A60044B1B6897
:1006FC00044A1360984708BD08ED00E0002000088C
:10070C00042000082C0000200C4B1B78DBB20C4A98
:10071C00D05458280BD3592805D95A2807D1094B3E
:10072C0001221A707047084B01221A707047034A55
:10073C0013780133DBB21370704700BFFA0000204E
:10074C0008010020F8000020F90000200246A0F16A
:10075C003003D8B2092809D9A2F14103DBB2052B29
:10076C0003D8A2F13700C0B27047002070470000D8
:10077C0038B50B4D687AFFF7E9FF0407A87AFFF745
:10078C00E5FF44EA0064E87AFFF7E0FF44EA00542E
:10079C00287BFFF7DBFF44EA0040024B186038BDB2
:1007AC00080100206C0100202DE9F843454B187A14
:1007BC00FFF7CCFF28B1042801D1FFF7D9FFBDE822
:1007CC00F883404C6078FFF7C1FF0501A078FFF774
:1007DC00BDFF46B22E43F6B2E078FFF7B7FF0546F1
:1007EC002079FFF7B3FF07466079FFF7AFFF80462C
:1007FC00A079FFF7ABFF344A13681B0C1B04136082
:10080C001368184340EA081040EA072040EA053014
:10081C00106000252BE0AC0004F10903DFF8A49074
:10082C0019F80300FFF792FF074604F10A0319F8C1
:10083C000300FFF78BFF80460B3419F80400FFF719
:10084C0085FF0446EB1C19F82300FFF77FFF2403F8
:10085C0044EA00231BB20FFA88F843EA080343EA80
:10086C0007139BB2194A22F815300135EDB2740802
:10087C00AC42D0D816F0010F06D1134B18682246A3
:10088C001249FFF749FE9AE7A70007F10903DFF8C1
:10089C00348018F80300FFF759FF06460A3718F89A
:1008AC000700FFF753FF360166F0FF0600B2064360
:1008BC00B6B2064921F81560034B1868621CFFF7A5
:1008CC002BFE7CE7080100206C010020300000208A
:1008DC0008B500F061F8FFF7DDFD00F01BF9002012
:1008EC00FFF7D4FE00F0E2F800F09AF80B22092191
:1008FC000020FFF74DFE04220A210020FFF748FEDE
:10090C000549064800F092F82520FFF7D5FE04486B
:10091C0000F0E2F808BD00BFF1060008C0E1E400F9
:10092C001507000808B5184B1B7843BB174B1B78F1
:10093C00DBB2012BF7D1164B1B78DBB2154AD35C1B
:10094C00DBB2582B05D0592B10D0104B00221A704B
:10095C00E9E70F4B00221A7000F080F840210820C4
:10096C00FFF7CEFD522000F0CBF8EEE7FFF71CFFAF
:10097C00074B00221A70522000F0C2F8E5E700F095
:10098C00B7F8FFF7AFFE08BDF8000020F900002013
:10099C00FA000020080100200C4B81221A6004335D
:1009AC0000221A60094B1B6813F0020FFAD0084B97
:1009BC001A6842F010021A601A6842F480721A60C7
:1009CC001A6842F400621A60704700BF00100240BF
:1009DC00041002401F291CD801280BD010B102288A
:1009EC0010D070470B480368012202FA01F1194339
:1009FC000160704708480368012202FA01F11943AB
:100A0C000160704705480368012202FA01F119439D
:100A1C0001607047141002401C1002401810024074
:100A2C00014B00221A60704710E000E0084B186080
:100A3C00043B1A6842F001021A60064A1160064A29
:100A4C00002111701A6842F002021A60704700BF50
:100A5C0014E000E0FC00002000010020074B1A68A5
:100A6C0022F002021A601A6822F001021A600023B6
:100A7C00034A136004321360704700BF10E000E0BB
:100A8C0014E000E008B5064B1B782BB1054B1B6836
:100A9C009847054B1B6808BDFFF7E0FFF6E700BF62
:100AAC0000010020FC00002010E000E0094B40F2A7
:100ABC0041329A60DA6842F00402DA60DA6842F095
:100ACC000802DA60DA6842F40052DA6000221A6036
:100ADC00704700BF00380140034B1860034AD368CD
:100AEC0043F02003D360704704010020003801401C
:100AFC00024AD36823F02003D360704700380140CA
:100B0C00034B5860024B1B6813F0400FFAD0704730
:100B1C000038014008B50E210220FFF75BFF08BD2D
:100B2C0008B5064B1B6813F0200F05D0034B586813
:100B3C00034B1B68C0B2984708BD00BF003801408A
:100B4C000401002008B5FFF7C3FEFFF7EBFEFEE73C
:100B5C00785634122800002000000000000000002D
:100B6C0000000000010203040607080900A24A0461
:040B7C0032547698E1
:040000050800010DE1
:00000001FF
